{
  "_format": "hh-sol-artifact-1",
  "contractName": "Voting",
  "sourceName": "contracts/Voting.sol",
  "abi": [
    {
      "anonymous": false,
      "inputs": [
        {
          "indexed": true,
          "internalType": "address",
          "name": "voter",
          "type": "address"
        }
      ],
      "name": "VoteCasted",
      "type": "event"
    },
    {
      "inputs": [],
      "name": "getTotalVotes",
      "outputs": [
        {
          "internalType": "uint256",
          "name": "",
          "type": "uint256"
        }
      ],
      "stateMutability": "view",
      "type": "function"
    },
    {
      "inputs": [],
      "name": "vote",
      "outputs": [],
      "stateMutability": "nonpayable",
      "type": "function"
    }
  ],
  "bytecode": "0x608060405234801561001057600080fd5b50610200806100206000396000f3fe608060405234801561001057600080fd5b50600436106100365760003560e01c8063632a9a521461003b5780639a0e7d6614610045575b600080fd5b61004361005a565b005b60005460405190815260200160405180910390f35b3360008181526001602052604090205460ff16156100fe576040517f08c379a000000000000000000000000000000000000000000000000000000000815260206004820152602260248201527f596f75206861766520616c72656164792063617374656420796f757220766f7460448201527f6521000000000000000000000000000000000000000000000000000000000000606482015260840160405180910390fd5b73ffffffffffffffffffffffffffffffffffffffff811660009081526001602081905260408220805460ff1916821790558154909190819061014190849061018a565b909155505060405173ffffffffffffffffffffffffffffffffffffffff8216907f7ce969a18bb6b0fba42c6d9746e7d08eeca4c661809659c91d276456e3153ac090600090a250565b808201808211156101c4577f4e487b7100000000000000000000000000000000000000000000000000000000600052601160045260246000fd5b9291505056fea264697066735822122019928c21742478d6426d4c1e511d10bdea7b631ef1cd0d4acb34bb0bc4a5493e64736f6c63430008140033",
  "linkReferences": {},
  "deployedLinkReferences": {}
}